{"contracts/ERC6551Registry.sol":{"ERC6551Registry":{"abi":[{"inputs":[],"name":"AccountCreationFailed","type":"error"},{"anonymous":false,"inputs":[{"indexed":false,"internalType":"address","name":"account","type":"address"},{"indexed":true,"internalType":"address","name":"implementation","type":"address"},{"indexed":false,"internalType":"uint256","name":"chainId","type":"uint256"},{"indexed":true,"internalType":"address","name":"tokenContract","type":"address"},{"indexed":true,"internalType":"uint256","name":"tokenId","type":"uint256"},{"indexed":false,"internalType":"uint256","name":"salt","type":"uint256"}],"name":"AccountCreated","type":"event"},{"inputs":[{"internalType":"address","name":"implementation","type":"address"},{"internalType":"uint256","name":"chainId","type":"uint256"},{"internalType":"address","name":"tokenContract","type":"address"},{"internalType":"uint256","name":"tokenId","type":"uint256"},{"internalType":"uint256","name":"salt","type":"uint256"}],"name":"account","outputs":[{"internalType":"address","name":"","type":"address"}],"stateMutability":"view","type":"function"},{"inputs":[{"internalType":"address","name":"implementation","type":"address"},{"internalType":"uint256","name":"chainId","type":"uint256"},{"internalType":"address","name":"tokenContract","type":"address"},{"internalType":"uint256","name":"tokenId","type":"uint256"},{"internalType":"uint256","name":"salt","type":"uint256"},{"internalType":"bytes","name":"initData","type":"bytes"}],"name":"createAccount","outputs":[{"internalType":"address","name":"","type":"address"}],"stateMutability":"nonpayable","type":"function"}],"evm":{"bytecode":{"linkReferences":{},"object":"608060405234801561001057600080fd5b5061082c806100206000396000f3fe608060405234801561001057600080fd5b50600436106100365760003560e01c80635e9bc5361461003b578063da7323b31461006b575b600080fd5b610055600480360381019061005091906103cb565b61009b565b6040516100629190610455565b60405180910390f35b610085600480360381019061008091906104d5565b6100cd565b6040516100929190610455565b60405180910390f35b6000806100ab8787878787610299565b8051906020012090506100c18360001b826102ed565b91505095945050505050565b6000806100dd8989898989610299565b905060006100f58660001b83805190602001206102ed565b905060008173ffffffffffffffffffffffffffffffffffffffff163b1461012057809250505061028e565b868873ffffffffffffffffffffffffffffffffffffffff168b73ffffffffffffffffffffffffffffffffffffffff167f07fba7bba1191da7ee1155dcfa0030701c9c9a9cc34a93b991fc6fd0c9268d8f848d8b60405161018293929190610593565b60405180910390a4858251602084016000f59050600073ffffffffffffffffffffffffffffffffffffffff168173ffffffffffffffffffffffffffffffffffffffff16036101fc576040517f20188a5900000000000000000000000000000000000000000000000000000000815260040160405180910390fd5b60008585905014610288576000808273ffffffffffffffffffffffffffffffffffffffff168787604051610231929190610609565b6000604051808303816000865af19150503d806000811461026e576040519150601f19603f3d011682016040523d82523d6000602084013e610273565b606091505b50915091508161028557805160208201fd5b50505b80925050505b979650505050505050565b606085828686866040516020016102b39493929190610622565b6040516020818303038152906040526040516020016102d39291906107b8565b604051602081830303815290604052905095945050505050565b60006102fa838330610302565b905092915050565b6000604051836040820152846020820152828152600b810160ff815360558120925050509392505050565b600080fd5b600080fd5b600073ffffffffffffffffffffffffffffffffffffffff82169050919050565b600061036282610337565b9050919050565b61037281610357565b811461037d57600080fd5b50565b60008135905061038f81610369565b92915050565b6000819050919050565b6103a881610395565b81146103b357600080fd5b50565b6000813590506103c58161039f565b92915050565b600080600080600060a086880312156103e7576103e661032d565b5b60006103f588828901610380565b9550506020610406888289016103b6565b945050604061041788828901610380565b9350506060610428888289016103b6565b9250506080610439888289016103b6565b9150509295509295909350565b61044f81610357565b82525050565b600060208201905061046a6000830184610446565b92915050565b600080fd5b600080fd5b600080fd5b60008083601f84011261049557610494610470565b5b8235905067ffffffffffffffff8111156104b2576104b1610475565b5b6020830191508360018202830111156104ce576104cd61047a565b5b9250929050565b600080600080600080600060c0888a0312156104f4576104f361032d565b5b60006105028a828b01610380565b97505060206105138a828b016103b6565b96505060406105248a828b01610380565b95505060606105358a828b016103b6565b94505060806105468a828b016103b6565b93505060a088013567ffffffffffffffff81111561056757610566610332565b5b6105738a828b0161047f565b925092505092959891949750929550565b61058d81610395565b82525050565b60006060820190506105a86000830186610446565b6105b56020830185610584565b6105c26040830184610584565b949350505050565b600081905092915050565b82818337600083830152505050565b60006105f083856105ca565b93506105fd8385846105d5565b82840190509392505050565b60006106168284866105e4565b91508190509392505050565b60006080820190506106376000830187610584565b6106446020830186610584565b6106516040830185610446565b61065e6060830184610584565b95945050505050565b600081905092915050565b7f3d60ad80600a3d3981f3363d3d373d3d3d363d73000000000000000000000000600082015250565b60006106a8601483610667565b91506106b382610672565b601482019050919050565b60008160601b9050919050565b60006106d6826106be565b9050919050565b60006106e8826106cb565b9050919050565b6107006106fb82610357565b6106dd565b82525050565b7f5af43d82803e903d91602b57fd5bf30000000000000000000000000000000000600082015250565b600061073c600f83610667565b915061074782610706565b600f82019050919050565b600081519050919050565b60005b8381101561077b578082015181840152602081019050610760565b60008484015250505050565b600061079282610752565b61079c81856105ca565b93506107ac81856020860161075d565b80840191505092915050565b60006107c38261069b565b91506107cf82856106ef565b6014820191506107de8261072f565b91506107ea8284610787565b9150819050939250505056fea2646970667358221220d95636ed5c198b0608e1c1a705e1ec8e893c1ee439ce7d724776fce5547c7fdc64736f6c63430008140033","opcodes":"PUSH1 0x80 PUSH1 0x40 MSTORE CALLVALUE DUP1 ISZERO PUSH2 0x10 JUMPI PUSH1 0x0 DUP1 REVERT JUMPDEST POP PUSH2 0x82C DUP1 PUSH2 0x20 PUSH1 0x0 CODECOPY PUSH1 0x0 RETURN INVALID PUSH1 0x80 PUSH1 0x40 MSTORE CALLVALUE DUP1 ISZERO PUSH2 0x10 JUMPI PUSH1 0x0 DUP1 REVERT JUMPDEST POP PUSH1 0x4 CALLDATASIZE LT PUSH2 0x36 JUMPI PUSH1 0x0 CALLDATALOAD PUSH1 0xE0 SHR DUP1 PUSH4 0x5E9BC536 EQ PUSH2 0x3B JUMPI DUP1 PUSH4 0xDA7323B3 EQ PUSH2 0x6B JUMPI JUMPDEST PUSH1 0x0 DUP1 REVERT JUMPDEST PUSH2 0x55 PUSH1 0x4 DUP1 CALLDATASIZE SUB DUP2 ADD SWAP1 PUSH2 0x50 SWAP2 SWAP1 PUSH2 0x3CB JUMP JUMPDEST PUSH2 0x9B JUMP JUMPDEST PUSH1 0x40 MLOAD PUSH2 0x62 SWAP2 SWAP1 PUSH2 0x455 JUMP JUMPDEST PUSH1 0x40 MLOAD DUP1 SWAP2 SUB SWAP1 RETURN JUMPDEST PUSH2 0x85 PUSH1 0x4 DUP1 CALLDATASIZE SUB DUP2 ADD SWAP1 PUSH2 0x80 SWAP2 SWAP1 PUSH2 0x4D5 JUMP JUMPDEST PUSH2 0xCD JUMP JUMPDEST PUSH1 0x40 MLOAD PUSH2 0x92 SWAP2 SWAP1 PUSH2 0x455 JUMP JUMPDEST PUSH1 0x40 MLOAD DUP1 SWAP2 SUB SWAP1 RETURN JUMPDEST PUSH1 0x0 DUP1 PUSH2 0xAB DUP8 DUP8 DUP8 DUP8 DUP8 PUSH2 0x299 JUMP JUMPDEST DUP1 MLOAD SWAP1 PUSH1 0x20 ADD KECCAK256 SWAP1 POP PUSH2 0xC1 DUP4 PUSH1 0x0 SHL DUP3 PUSH2 0x2ED JUMP JUMPDEST SWAP2 POP POP SWAP6 SWAP5 POP POP POP POP POP JUMP JUMPDEST PUSH1 0x0 DUP1 PUSH2 0xDD DUP10 DUP10 DUP10 DUP10 DUP10 PUSH2 0x299 JUMP JUMPDEST SWAP1 POP PUSH1 0x0 PUSH2 0xF5 DUP7 PUSH1 0x0 SHL DUP4 DUP1 MLOAD SWAP1 PUSH1 0x20 ADD KECCAK256 PUSH2 0x2ED JUMP JUMPDEST SWAP1 POP PUSH1 0x0 DUP2 PUSH20 0xFFFFFFFFFFFFFFFFFFFFFFFFFFFFFFFFFFFFFFFF AND EXTCODESIZE EQ PUSH2 0x120 JUMPI DUP1 SWAP3 POP POP POP PUSH2 0x28E JUMP JUMPDEST DUP7 DUP9 PUSH20 0xFFFFFFFFFFFFFFFFFFFFFFFFFFFFFFFFFFFFFFFF AND DUP12 PUSH20 0xFFFFFFFFFFFFFFFFFFFFFFFFFFFFFFFFFFFFFFFF AND PUSH32 0x7FBA7BBA1191DA7EE1155DCFA0030701C9C9A9CC34A93B991FC6FD0C9268D8F DUP5 DUP14 DUP12 PUSH1 0x40 MLOAD PUSH2 0x182 SWAP4 SWAP3 SWAP2 SWAP1 PUSH2 0x593 JUMP JUMPDEST PUSH1 0x40 MLOAD DUP1 SWAP2 SUB SWAP1 LOG4 DUP6 DUP3 MLOAD PUSH1 0x20 DUP5 ADD PUSH1 0x0 CREATE2 SWAP1 POP PUSH1 0x0 PUSH20 0xFFFFFFFFFFFFFFFFFFFFFFFFFFFFFFFFFFFFFFFF AND DUP2 PUSH20 0xFFFFFFFFFFFFFFFFFFFFFFFFFFFFFFFFFFFFFFFF AND SUB PUSH2 0x1FC JUMPI PUSH1 0x40 MLOAD PUSH32 0x20188A5900000000000000000000000000000000000000000000000000000000 DUP2 MSTORE PUSH1 0x4 ADD PUSH1 0x40 MLOAD DUP1 SWAP2 SUB SWAP1 REVERT JUMPDEST PUSH1 0x0 DUP6 DUP6 SWAP1 POP EQ PUSH2 0x288 JUMPI PUSH1 0x0 DUP1 DUP3 PUSH20 0xFFFFFFFFFFFFFFFFFFFFFFFFFFFFFFFFFFFFFFFF AND DUP8 DUP8 PUSH1 0x40 MLOAD PUSH2 0x231 SWAP3 SWAP2 SWAP1 PUSH2 0x609 JUMP JUMPDEST PUSH1 0x0 PUSH1 0x40 MLOAD DUP1 DUP4 SUB DUP2 PUSH1 0x0 DUP7 GAS CALL SWAP2 POP POP RETURNDATASIZE DUP1 PUSH1 0x0 DUP2 EQ PUSH2 0x26E JUMPI PUSH1 0x40 MLOAD SWAP2 POP PUSH1 0x1F NOT PUSH1 0x3F RETURNDATASIZE ADD AND DUP3 ADD PUSH1 0x40 MSTORE RETURNDATASIZE DUP3 MSTORE RETURNDATASIZE PUSH1 0x0 PUSH1 0x20 DUP5 ADD RETURNDATACOPY PUSH2 0x273 JUMP JUMPDEST PUSH1 0x60 SWAP2 POP JUMPDEST POP SWAP2 POP SWAP2 POP DUP2 PUSH2 0x285 JUMPI DUP1 MLOAD PUSH1 0x20 DUP3 ADD REVERT JUMPDEST POP POP JUMPDEST DUP1 SWAP3 POP POP POP JUMPDEST SWAP8 SWAP7 POP POP POP POP POP POP POP JUMP JUMPDEST PUSH1 0x60 DUP6 DUP3 DUP7 DUP7 DUP7 PUSH1 0x40 MLOAD PUSH1 0x20 ADD PUSH2 0x2B3 SWAP5 SWAP4 SWAP3 SWAP2 SWAP1 PUSH2 0x622 JUMP JUMPDEST PUSH1 0x40 MLOAD PUSH1 0x20 DUP2 DUP4 SUB SUB DUP2 MSTORE SWAP1 PUSH1 0x40 MSTORE PUSH1 0x40 MLOAD PUSH1 0x20 ADD PUSH2 0x2D3 SWAP3 SWAP2 SWAP1 PUSH2 0x7B8 JUMP JUMPDEST PUSH1 0x40 MLOAD PUSH1 0x20 DUP2 DUP4 SUB SUB DUP2 MSTORE SWAP1 PUSH1 0x40 MSTORE SWAP1 POP SWAP6 SWAP5 POP POP POP POP POP JUMP JUMPDEST PUSH1 0x0 PUSH2 0x2FA DUP4 DUP4 ADDRESS PUSH2 0x302 JUMP JUMPDEST SWAP1 POP SWAP3 SWAP2 POP POP JUMP JUMPDEST PUSH1 0x0 PUSH1 0x40 MLOAD DUP4 PUSH1 0x40 DUP3 ADD MSTORE DUP5 PUSH1 0x20 DUP3 ADD MSTORE DUP3 DUP2 MSTORE PUSH1 0xB DUP2 ADD PUSH1 0xFF DUP2 MSTORE8 PUSH1 0x55 DUP2 KECCAK256 SWAP3 POP POP POP SWAP4 SWAP3 POP POP POP JUMP JUMPDEST PUSH1 0x0 DUP1 REVERT JUMPDEST PUSH1 0x0 DUP1 REVERT JUMPDEST PUSH1 0x0 PUSH20 0xFFFFFFFFFFFFFFFFFFFFFFFFFFFFFFFFFFFFFFFF DUP3 AND SWAP1 POP SWAP2 SWAP1 POP JUMP JUMPDEST PUSH1 0x0 PUSH2 0x362 DUP3 PUSH2 0x337 JUMP JUMPDEST SWAP1 POP SWAP2 SWAP1 POP JUMP JUMPDEST PUSH2 0x372 DUP2 PUSH2 0x357 JUMP JUMPDEST DUP2 EQ PUSH2 0x37D JUMPI PUSH1 0x0 DUP1 REVERT JUMPDEST POP JUMP JUMPDEST PUSH1 0x0 DUP2 CALLDATALOAD SWAP1 POP PUSH2 0x38F DUP2 PUSH2 0x369 JUMP JUMPDEST SWAP3 SWAP2 POP POP JUMP JUMPDEST PUSH1 0x0 DUP2 SWAP1 POP SWAP2 SWAP1 POP JUMP JUMPDEST PUSH2 0x3A8 DUP2 PUSH2 0x395 JUMP JUMPDEST DUP2 EQ PUSH2 0x3B3 JUMPI PUSH1 0x0 DUP1 REVERT JUMPDEST POP JUMP JUMPDEST PUSH1 0x0 DUP2 CALLDATALOAD SWAP1 POP PUSH2 0x3C5 DUP2 PUSH2 0x39F JUMP JUMPDEST SWAP3 SWAP2 POP POP JUMP JUMPDEST PUSH1 0x0 DUP1 PUSH1 0x0 DUP1 PUSH1 0x0 PUSH1 0xA0 DUP7 DUP9 SUB SLT ISZERO PUSH2 0x3E7 JUMPI PUSH2 0x3E6 PUSH2 0x32D JUMP JUMPDEST JUMPDEST PUSH1 0x0 PUSH2 0x3F5 DUP9 DUP3 DUP10 ADD PUSH2 0x380 JUMP JUMPDEST SWAP6 POP POP PUSH1 0x20 PUSH2 0x406 DUP9 DUP3 DUP10 ADD PUSH2 0x3B6 JUMP JUMPDEST SWAP5 POP POP PUSH1 0x40 PUSH2 0x417 DUP9 DUP3 DUP10 ADD PUSH2 0x380 JUMP JUMPDEST SWAP4 POP POP PUSH1 0x60 PUSH2 0x428 DUP9 DUP3 DUP10 ADD PUSH2 0x3B6 JUMP JUMPDEST SWAP3 POP POP PUSH1 0x80 PUSH2 0x439 DUP9 DUP3 DUP10 ADD PUSH2 0x3B6 JUMP JUMPDEST SWAP2 POP POP SWAP3 SWAP6 POP SWAP3 SWAP6 SWAP1 SWAP4 POP JUMP JUMPDEST PUSH2 0x44F DUP2 PUSH2 0x357 JUMP JUMPDEST DUP3 MSTORE POP POP JUMP JUMPDEST PUSH1 0x0 PUSH1 0x20 DUP3 ADD SWAP1 POP PUSH2 0x46A PUSH1 0x0 DUP4 ADD DUP5 PUSH2 0x446 JUMP JUMPDEST SWAP3 SWAP2 POP POP JUMP JUMPDEST PUSH1 0x0 DUP1 REVERT JUMPDEST PUSH1 0x0 DUP1 REVERT JUMPDEST PUSH1 0x0 DUP1 REVERT JUMPDEST PUSH1 0x0 DUP1 DUP4 PUSH1 0x1F DUP5 ADD SLT PUSH2 0x495 JUMPI PUSH2 0x494 PUSH2 0x470 JUMP JUMPDEST JUMPDEST DUP3 CALLDATALOAD SWAP1 POP PUSH8 0xFFFFFFFFFFFFFFFF DUP2 GT ISZERO PUSH2 0x4B2 JUMPI PUSH2 0x4B1 PUSH2 0x475 JUMP JUMPDEST JUMPDEST PUSH1 0x20 DUP4 ADD SWAP2 POP DUP4 PUSH1 0x1 DUP3 MUL DUP4 ADD GT ISZERO PUSH2 0x4CE JUMPI PUSH2 0x4CD PUSH2 0x47A JUMP JUMPDEST JUMPDEST SWAP3 POP SWAP3 SWAP1 POP JUMP JUMPDEST PUSH1 0x0 DUP1 PUSH1 0x0 DUP1 PUSH1 0x0 DUP1 PUSH1 0x0 PUSH1 0xC0 DUP9 DUP11 SUB SLT ISZERO PUSH2 0x4F4 JUMPI PUSH2 0x4F3 PUSH2 0x32D JUMP JUMPDEST JUMPDEST PUSH1 0x0 PUSH2 0x502 DUP11 DUP3 DUP12 ADD PUSH2 0x380 JUMP JUMPDEST SWAP8 POP POP PUSH1 0x20 PUSH2 0x513 DUP11 DUP3 DUP12 ADD PUSH2 0x3B6 JUMP JUMPDEST SWAP7 POP POP PUSH1 0x40 PUSH2 0x524 DUP11 DUP3 DUP12 ADD PUSH2 0x380 JUMP JUMPDEST SWAP6 POP POP PUSH1 0x60 PUSH2 0x535 DUP11 DUP3 DUP12 ADD PUSH2 0x3B6 JUMP JUMPDEST SWAP5 POP POP PUSH1 0x80 PUSH2 0x546 DUP11 DUP3 DUP12 ADD PUSH2 0x3B6 JUMP JUMPDEST SWAP4 POP POP PUSH1 0xA0 DUP9 ADD CALLDATALOAD PUSH8 0xFFFFFFFFFFFFFFFF DUP2 GT ISZERO PUSH2 0x567 JUMPI PUSH2 0x566 PUSH2 0x332 JUMP JUMPDEST JUMPDEST PUSH2 0x573 DUP11 DUP3 DUP12 ADD PUSH2 0x47F JUMP JUMPDEST SWAP3 POP SWAP3 POP POP SWAP3 SWAP6 SWAP9 SWAP2 SWAP5 SWAP8 POP SWAP3 SWAP6 POP JUMP JUMPDEST PUSH2 0x58D DUP2 PUSH2 0x395 JUMP JUMPDEST DUP3 MSTORE POP POP JUMP JUMPDEST PUSH1 0x0 PUSH1 0x60 DUP3 ADD SWAP1 POP PUSH2 0x5A8 PUSH1 0x0 DUP4 ADD DUP7 PUSH2 0x446 JUMP JUMPDEST PUSH2 0x5B5 PUSH1 0x20 DUP4 ADD DUP6 PUSH2 0x584 JUMP JUMPDEST PUSH2 0x5C2 PUSH1 0x40 DUP4 ADD DUP5 PUSH2 0x584 JUMP JUMPDEST SWAP5 SWAP4 POP POP POP POP JUMP JUMPDEST PUSH1 0x0 DUP2 SWAP1 POP SWAP3 SWAP2 POP POP JUMP JUMPDEST DUP3 DUP2 DUP4 CALLDATACOPY PUSH1 0x0 DUP4 DUP4 ADD MSTORE POP POP POP JUMP JUMPDEST PUSH1 0x0 PUSH2 0x5F0 DUP4 DUP6 PUSH2 0x5CA JUMP JUMPDEST SWAP4 POP PUSH2 0x5FD DUP4 DUP6 DUP5 PUSH2 0x5D5 JUMP JUMPDEST DUP3 DUP5 ADD SWAP1 POP SWAP4 SWAP3 POP POP POP JUMP JUMPDEST PUSH1 0x0 PUSH2 0x616 DUP3 DUP5 DUP7 PUSH2 0x5E4 JUMP JUMPDEST SWAP2 POP DUP2 SWAP1 POP SWAP4 SWAP3 POP POP POP JUMP JUMPDEST PUSH1 0x0 PUSH1 0x80 DUP3 ADD SWAP1 POP PUSH2 0x637 PUSH1 0x0 DUP4 ADD DUP8 PUSH2 0x584 JUMP JUMPDEST PUSH2 0x644 PUSH1 0x20 DUP4 ADD DUP7 PUSH2 0x584 JUMP JUMPDEST PUSH2 0x651 PUSH1 0x40 DUP4 ADD DUP6 PUSH2 0x446 JUMP JUMPDEST PUSH2 0x65E PUSH1 0x60 DUP4 ADD DUP5 PUSH2 0x584 JUMP JUMPDEST SWAP6 SWAP5 POP POP POP POP POP JUMP JUMPDEST PUSH1 0x0 DUP2 SWAP1 POP SWAP3 SWAP2 POP POP JUMP JUMPDEST PUSH32 0x3D60AD80600A3D3981F3363D3D373D3D3D363D73000000000000000000000000 PUSH1 0x0 DUP3 ADD MSTORE POP JUMP JUMPDEST PUSH1 0x0 PUSH2 0x6A8 PUSH1 0x14 DUP4 PUSH2 0x667 JUMP JUMPDEST SWAP2 POP PUSH2 0x6B3 DUP3 PUSH2 0x672 JUMP JUMPDEST PUSH1 0x14 DUP3 ADD SWAP1 POP SWAP2 SWAP1 POP JUMP JUMPDEST PUSH1 0x0 DUP2 PUSH1 0x60 SHL SWAP1 POP SWAP2 SWAP1 POP JUMP JUMPDEST PUSH1 0x0 PUSH2 0x6D6 DUP3 PUSH2 0x6BE JUMP JUMPDEST SWAP1 POP SWAP2 SWAP1 POP JUMP JUMPDEST PUSH1 0x0 PUSH2 0x6E8 DUP3 PUSH2 0x6CB JUMP JUMPDEST SWAP1 POP SWAP2 SWAP1 POP JUMP JUMPDEST PUSH2 0x700 PUSH2 0x6FB DUP3 PUSH2 0x357 JUMP JUMPDEST PUSH2 0x6DD JUMP JUMPDEST DUP3 MSTORE POP POP JUMP JUMPDEST PUSH32 0x5AF43D82803E903D91602B57FD5BF30000000000000000000000000000000000 PUSH1 0x0 DUP3 ADD MSTORE POP JUMP JUMPDEST PUSH1 0x0 PUSH2 0x73C PUSH1 0xF DUP4 PUSH2 0x667 JUMP JUMPDEST SWAP2 POP PUSH2 0x747 DUP3 PUSH2 0x706 JUMP JUMPDEST PUSH1 0xF DUP3 ADD SWAP1 POP SWAP2 SWAP1 POP JUMP JUMPDEST PUSH1 0x0 DUP2 MLOAD SWAP1 POP SWAP2 SWAP1 POP JUMP JUMPDEST PUSH1 0x0 JUMPDEST DUP4 DUP2 LT ISZERO PUSH2 0x77B JUMPI DUP1 DUP3 ADD MLOAD DUP2 DUP5 ADD MSTORE PUSH1 0x20 DUP2 ADD SWAP1 POP PUSH2 0x760 JUMP JUMPDEST PUSH1 0x0 DUP5 DUP5 ADD MSTORE POP POP POP POP JUMP JUMPDEST PUSH1 0x0 PUSH2 0x792 DUP3 PUSH2 0x752 JUMP JUMPDEST PUSH2 0x79C DUP2 DUP6 PUSH2 0x5CA JUMP JUMPDEST SWAP4 POP PUSH2 0x7AC DUP2 DUP6 PUSH1 0x20 DUP7 ADD PUSH2 0x75D JUMP JUMPDEST DUP1 DUP5 ADD SWAP2 POP POP SWAP3 SWAP2 POP POP JUMP JUMPDEST PUSH1 0x0 PUSH2 0x7C3 DUP3 PUSH2 0x69B JUMP JUMPDEST SWAP2 POP PUSH2 0x7CF DUP3 DUP6 PUSH2 0x6EF JUMP JUMPDEST PUSH1 0x14 DUP3 ADD SWAP2 POP PUSH2 0x7DE DUP3 PUSH2 0x72F JUMP JUMPDEST SWAP2 POP PUSH2 0x7EA DUP3 DUP5 PUSH2 0x787 JUMP JUMPDEST SWAP2 POP DUP2 SWAP1 POP SWAP4 SWAP3 POP POP POP JUMP INVALID LOG2 PUSH5 0x6970667358 0x22 SLT KECCAK256 0xD9 JUMP CALLDATASIZE 0xED 0x5C NOT DUP12 MOD ADDMOD 0xE1 0xC1 0xA7 SDIV 0xE1 0xEC DUP15 DUP10 EXTCODECOPY 0x1E 0xE4 CODECOPY 0xCE PUSH30 0x724776FCE5547C7FDC64736F6C6343000814003300000000000000000000 "},"methodIdentifiers":{"account(address,uint256,address,uint256,uint256)":"5e9bc536","createAccount(address,uint256,address,uint256,uint256,bytes)":"da7323b3"}}}}}