{
  "_format": "hh-sol-artifact-1",
  "contractName": "Pinnie",
  "sourceName": "contracts/Pinnie.sol",
  "abi": [
    {
      "inputs": [
        {
          "internalType": "string",
          "name": "baseURI",
          "type": "string"
        }
      ],
      "stateMutability": "nonpayable",
      "type": "constructor"
    },
    {
      "inputs": [
        {
          "internalType": "address",
          "name": "sender",
          "type": "address"
        },
        {
          "internalType": "uint256",
          "name": "tokenId",
          "type": "uint256"
        },
        {
          "internalType": "address",
          "name": "owner",
          "type": "address"
        }
      ],
      "name": "ERC721IncorrectOwner",
      "type": "error"
    },
    {
      "inputs": [
        {
          "internalType": "address",
          "name": "operator",
          "type": "address"
        },
        {
          "internalType": "uint256",
          "name": "tokenId",
          "type": "uint256"
        }
      ],
      "name": "ERC721InsufficientApproval",
      "type": "error"
    },
    {
      "inputs": [
        {
          "internalType": "address",
          "name": "approver",
          "type": "address"
        }
      ],
      "name": "ERC721InvalidApprover",
      "type": "error"
    },
    {
      "inputs": [
        {
          "internalType": "address",
          "name": "operator",
          "type": "address"
        }
      ],
      "name": "ERC721InvalidOperator",
      "type": "error"
    },
    {
      "inputs": [
        {
          "internalType": "address",
          "name": "owner",
          "type": "address"
        }
      ],
      "name": "ERC721InvalidOwner",
      "type": "error"
    },
    {
      "inputs": [
        {
          "internalType": "address",
          "name": "receiver",
          "type": "address"
        }
      ],
      "name": "ERC721InvalidReceiver",
      "type": "error"
    },
    {
      "inputs": [
        {
          "internalType": "address",
          "name": "sender",
          "type": "address"
        }
      ],
      "name": "ERC721InvalidSender",
      "type": "error"
    },
    {
      "inputs": [
        {
          "internalType": "uint256",
          "name": "tokenId",
          "type": "uint256"
        }
      ],
      "name": "ERC721NonexistentToken",
      "type": "error"
    },
    {
      "inputs": [
        {
          "internalType": "address",
          "name": "owner",
          "type": "address"
        }
      ],
      "name": "OwnableInvalidOwner",
      "type": "error"
    },
    {
      "inputs": [
        {
          "internalType": "address",
          "name": "account",
          "type": "address"
        }
      ],
      "name": "OwnableUnauthorizedAccount",
      "type": "error"
    },
    {
      "anonymous": false,
      "inputs": [
        {
          "indexed": true,
          "internalType": "address",
          "name": "owner",
          "type": "address"
        },
        {
          "indexed": true,
          "internalType": "address",
          "name": "approved",
          "type": "address"
        },
        {
          "indexed": true,
          "internalType": "uint256",
          "name": "tokenId",
          "type": "uint256"
        }
      ],
      "name": "Approval",
      "type": "event"
    },
    {
      "anonymous": false,
      "inputs": [
        {
          "indexed": true,
          "internalType": "address",
          "name": "owner",
          "type": "address"
        },
        {
          "indexed": true,
          "internalType": "address",
          "name": "operator",
          "type": "address"
        },
        {
          "indexed": false,
          "internalType": "bool",
          "name": "approved",
          "type": "bool"
        }
      ],
      "name": "ApprovalForAll",
      "type": "event"
    },
    {
      "anonymous": false,
      "inputs": [
        {
          "indexed": false,
          "internalType": "uint256",
          "name": "_fromTokenId",
          "type": "uint256"
        },
        {
          "indexed": false,
          "internalType": "uint256",
          "name": "_toTokenId",
          "type": "uint256"
        }
      ],
      "name": "BatchMetadataUpdate",
      "type": "event"
    },
    {
      "anonymous": false,
      "inputs": [
        {
          "indexed": false,
          "internalType": "uint256",
          "name": "_tokenId",
          "type": "uint256"
        }
      ],
      "name": "MetadataUpdate",
      "type": "event"
    },
    {
      "anonymous": false,
      "inputs": [
        {
          "indexed": true,
          "internalType": "address",
          "name": "previousOwner",
          "type": "address"
        },
        {
          "indexed": true,
          "internalType": "address",
          "name": "newOwner",
          "type": "address"
        }
      ],
      "name": "OwnershipTransferred",
      "type": "event"
    },
    {
      "anonymous": false,
      "inputs": [
        {
          "indexed": true,
          "internalType": "address",
          "name": "from",
          "type": "address"
        },
        {
          "indexed": true,
          "internalType": "address",
          "name": "to",
          "type": "address"
        },
        {
          "indexed": true,
          "internalType": "uint256",
          "name": "tokenId",
          "type": "uint256"
        }
      ],
      "name": "Transfer",
      "type": "event"
    },
    {
      "inputs": [],
      "name": "_tokenId",
      "outputs": [
        {
          "internalType": "uint256",
          "name": "",
          "type": "uint256"
        }
      ],
      "stateMutability": "view",
      "type": "function"
    },
    {
      "inputs": [
        {
          "internalType": "address",
          "name": "to",
          "type": "address"
        },
        {
          "internalType": "uint256",
          "name": "tokenId",
          "type": "uint256"
        }
      ],
      "name": "approve",
      "outputs": [],
      "stateMutability": "nonpayable",
      "type": "function"
    },
    {
      "inputs": [
        {
          "internalType": "address",
          "name": "owner",
          "type": "address"
        }
      ],
      "name": "balanceOf",
      "outputs": [
        {
          "internalType": "uint256",
          "name": "",
          "type": "uint256"
        }
      ],
      "stateMutability": "view",
      "type": "function"
    },
    {
      "inputs": [
        {
          "internalType": "uint256",
          "name": "tokenId",
          "type": "uint256"
        }
      ],
      "name": "getApproved",
      "outputs": [
        {
          "internalType": "address",
          "name": "",
          "type": "address"
        }
      ],
      "stateMutability": "view",
      "type": "function"
    },
    {
      "inputs": [
        {
          "internalType": "address",
          "name": "owner",
          "type": "address"
        },
        {
          "internalType": "address",
          "name": "operator",
          "type": "address"
        }
      ],
      "name": "isApprovedForAll",
      "outputs": [
        {
          "internalType": "bool",
          "name": "",
          "type": "bool"
        }
      ],
      "stateMutability": "view",
      "type": "function"
    },
    {
      "inputs": [],
      "name": "name",
      "outputs": [
        {
          "internalType": "string",
          "name": "",
          "type": "string"
        }
      ],
      "stateMutability": "view",
      "type": "function"
    },
    {
      "inputs": [],
      "name": "nextId",
      "outputs": [
        {
          "internalType": "uint256",
          "name": "",
          "type": "uint256"
        }
      ],
      "stateMutability": "view",
      "type": "function"
    },
    {
      "inputs": [],
      "name": "owner",
      "outputs": [
        {
          "internalType": "address",
          "name": "",
          "type": "address"
        }
      ],
      "stateMutability": "view",
      "type": "function"
    },
    {
      "inputs": [
        {
          "internalType": "uint256",
          "name": "tokenId",
          "type": "uint256"
        }
      ],
      "name": "ownerOf",
      "outputs": [
        {
          "internalType": "address",
          "name": "",
          "type": "address"
        }
      ],
      "stateMutability": "view",
      "type": "function"
    },
    {
      "inputs": [],
      "name": "renounceOwnership",
      "outputs": [],
      "stateMutability": "nonpayable",
      "type": "function"
    },
    {
      "inputs": [
        {
          "internalType": "address",
          "name": "to",
          "type": "address"
        },
        {
          "internalType": "string",
          "name": "uri",
          "type": "string"
        }
      ],
      "name": "safeMint",
      "outputs": [],
      "stateMutability": "nonpayable",
      "type": "function"
    },
    {
      "inputs": [
        {
          "internalType": "address",
          "name": "from",
          "type": "address"
        },
        {
          "internalType": "address",
          "name": "to",
          "type": "address"
        },
        {
          "internalType": "uint256",
          "name": "tokenId",
          "type": "uint256"
        }
      ],
      "name": "safeTransferFrom",
      "outputs": [],
      "stateMutability": "nonpayable",
      "type": "function"
    },
    {
      "inputs": [
        {
          "internalType": "address",
          "name": "from",
          "type": "address"
        },
        {
          "internalType": "address",
          "name": "to",
          "type": "address"
        },
        {
          "internalType": "uint256",
          "name": "tokenId",
          "type": "uint256"
        },
        {
          "internalType": "bytes",
          "name": "data",
          "type": "bytes"
        }
      ],
      "name": "safeTransferFrom",
      "outputs": [],
      "stateMutability": "nonpayable",
      "type": "function"
    },
    {
      "inputs": [
        {
          "internalType": "address",
          "name": "operator",
          "type": "address"
        },
        {
          "internalType": "bool",
          "name": "approved",
          "type": "bool"
        }
      ],
      "name": "setApprovalForAll",
      "outputs": [],
      "stateMutability": "nonpayable",
      "type": "function"
    },
    {
      "inputs": [
        {
          "internalType": "string",
          "name": "baseURI",
          "type": "string"
        }
      ],
      "name": "setBaseURI",
      "outputs": [],
      "stateMutability": "nonpayable",
      "type": "function"
    },
    {
      "inputs": [
        {
          "internalType": "bytes4",
          "name": "interfaceId",
          "type": "bytes4"
        }
      ],
      "name": "supportsInterface",
      "outputs": [
        {
          "internalType": "bool",
          "name": "",
          "type": "bool"
        }
      ],
      "stateMutability": "view",
      "type": "function"
    },
    {
      "inputs": [],
      "name": "symbol",
      "outputs": [
        {
          "internalType": "string",
          "name": "",
          "type": "string"
        }
      ],
      "stateMutability": "view",
      "type": "function"
    },
    {
      "inputs": [
        {
          "internalType": "uint256",
          "name": "tokenId",
          "type": "uint256"
        }
      ],
      "name": "tokenURI",
      "outputs": [
        {
          "internalType": "string",
          "name": "",
          "type": "string"
        }
      ],
      "stateMutability": "view",
      "type": "function"
    },
    {
      "inputs": [
        {
          "internalType": "address",
          "name": "from",
          "type": "address"
        },
        {
          "internalType": "address",
          "name": "to",
          "type": "address"
        },
        {
          "internalType": "uint256",
          "name": "tokenId",
          "type": "uint256"
        }
      ],
      "name": "transferFrom",
      "outputs": [],
      "stateMutability": "nonpayable",
      "type": "function"
    },
    {
      "inputs": [
        {
          "internalType": "address",
          "name": "newOwner",
          "type": "address"
        }
      ],
      "name": "transferOwnership",
      "outputs": [],
      "stateMutability": "nonpayable",
      "type": "function"
    }
  ],
  "bytecode": "0x60806040523480156200001157600080fd5b5060405162002f9e38038062002f9e8339818101604052810190620000379190620003c3565b336040518060400160405280600681526020017f50696e6e696500000000000000000000000000000000000000000000000000008152506040518060400160405280600381526020017f50494e00000000000000000000000000000000000000000000000000000000008152508160009081620000b591906200065f565b508060019081620000c791906200065f565b505050600073ffffffffffffffffffffffffffffffffffffffff168173ffffffffffffffffffffffffffffffffffffffff16036200013f5760006040517f1e4fbdf70000000000000000000000000000000000000000000000000000000081526004016200013691906200078b565b60405180910390fd5b62000150816200016a60201b60201c565b5080600990816200016291906200065f565b5050620007a8565b6000600760009054906101000a900473ffffffffffffffffffffffffffffffffffffffff16905081600760006101000a81548173ffffffffffffffffffffffffffffffffffffffff021916908373ffffffffffffffffffffffffffffffffffffffff1602179055508173ffffffffffffffffffffffffffffffffffffffff168173ffffffffffffffffffffffffffffffffffffffff167f8be0079c531659141344cd1fd0a4f28419497f9722a3daafe3b4186f6b6457e060405160405180910390a35050565b6000604051905090565b600080fd5b600080fd5b600080fd5b600080fd5b6000601f19601f8301169050919050565b7f4e487b7100000000000000000000000000000000000000000000000000000000600052604160045260246000fd5b62000299826200024e565b810181811067ffffffffffffffff82111715620002bb57620002ba6200025f565b5b80604052505050565b6000620002d062000230565b9050620002de82826200028e565b919050565b600067ffffffffffffffff8211156200030157620003006200025f565b5b6200030c826200024e565b9050602081019050919050565b60005b83811015620003395780820151818401526020810190506200031c565b60008484015250505050565b60006200035c6200035684620002e3565b620002c4565b9050828152602081018484840111156200037b576200037a62000249565b5b6200038884828562000319565b509392505050565b600082601f830112620003a857620003a762000244565b5b8151620003ba84826020860162000345565b91505092915050565b600060208284031215620003dc57620003db6200023a565b5b600082015167ffffffffffffffff811115620003fd57620003fc6200023f565b5b6200040b8482850162000390565b91505092915050565b600081519050919050565b7f4e487b7100000000000000000000000000000000000000000000000000000000600052602260045260246000fd5b600060028204905060018216806200046757607f821691505b6020821081036200047d576200047c6200041f565b5b50919050565b60008190508160005260206000209050919050565b60006020601f8301049050919050565b600082821b905092915050565b600060088302620004e77fffffffffffffffffffffffffffffffffffffffffffffffffffffffffffffffff82620004a8565b620004f38683620004a8565b95508019841693508086168417925050509392505050565b6000819050919050565b6000819050919050565b6000620005406200053a62000534846200050b565b62000515565b6200050b565b9050919050565b6000819050919050565b6200055c836200051f565b620005746200056b8262000547565b848454620004b5565b825550505050565b600090565b6200058b6200057c565b6200059881848462000551565b505050565b5b81811015620005c057620005b460008262000581565b6001810190506200059e565b5050565b601f8211156200060f57620005d98162000483565b620005e48462000498565b81016020851015620005f4578190505b6200060c620006038562000498565b8301826200059d565b50505b505050565b600082821c905092915050565b6000620006346000198460080262000614565b1980831691505092915050565b60006200064f838362000621565b9150826002028217905092915050565b6200066a8262000414565b67ffffffffffffffff8111156200068657620006856200025f565b5b6200069282546200044e565b6200069f828285620005c4565b600060209050601f831160018114620006d75760008415620006c2578287015190505b620006ce858262000641565b8655506200073e565b601f198416620006e78662000483565b60005b828110156200071157848901518255600182019150602085019450602081019050620006ea565b868310156200073157848901516200072d601f89168262000621565b8355505b6001600288020188555050505b505050505050565b600073ffffffffffffffffffffffffffffffffffffffff82169050919050565b6000620007738262000746565b9050919050565b620007858162000766565b82525050565b6000602082019050620007a260008301846200077a565b92915050565b6127e680620007b86000396000f3fe608060405234801561001057600080fd5b506004361061012c5760003560e01c806370a08231116100ad578063b88d4fde11610071578063b88d4fde1461031d578063c87b56dd14610339578063d204c45e14610369578063e985e9c514610385578063f2fde38b146103b55761012c565b806370a082311461028b578063715018a6146102bb5780638da5cb5b146102c557806395d89b41146102e3578063a22cb465146103015761012c565b806324822514116100f457806324822514146101e757806342842e0e1461020557806355f804b31461022157806361b8ce8c1461023d5780636352211e1461025b5761012c565b806301ffc9a71461013157806306fdde0314610161578063081812fc1461017f578063095ea7b3146101af57806323b872dd146101cb575b600080fd5b61014b60048036038101906101469190611bf5565b6103d1565b6040516101589190611c3d565b60405180910390f35b6101696103e3565b6040516101769190611ce8565b60405180910390f35b61019960048036038101906101949190611d40565b610475565b6040516101a69190611dae565b60405180910390f35b6101c960048036038101906101c49190611df5565b610491565b005b6101e560048036038101906101e09190611e35565b6104a7565b005b6101ef6105a9565b6040516101fc9190611e97565b60405180910390f35b61021f600480360381019061021a9190611e35565b6105af565b005b61023b60048036038101906102369190611fe7565b6105cf565b005b6102456105ea565b6040516102529190611e97565b60405180910390f35b61027560048036038101906102709190611d40565b6105f4565b6040516102829190611dae565b60405180910390f35b6102a560048036038101906102a09190612030565b610606565b6040516102b29190611e97565b60405180910390f35b6102c36106c0565b005b6102cd6106d4565b6040516102da9190611dae565b60405180910390f35b6102eb6106fe565b6040516102f89190611ce8565b60405180910390f35b61031b60048036038101906103169190612089565b610790565b005b6103376004803603810190610332919061216a565b6107a6565b005b610353600480360381019061034e9190611d40565b6107c3565b6040516103609190611ce8565b60405180910390f35b610383600480360381019061037e91906121ed565b6107d5565b005b61039f600480360381019061039a9190612249565b610811565b6040516103ac9190611c3d565b60405180910390f35b6103cf60048036038101906103ca9190612030565b6108a5565b005b60006103dc8261092b565b9050919050565b6060600080546103f2906122b8565b80601f016020809104026020016040519081016040528092919081815260200182805461041e906122b8565b801561046b5780601f106104405761010080835404028352916020019161046b565b820191906000526020600020905b81548152906001019060200180831161044e57829003601f168201915b5050505050905090565b60006104808261098c565b5061048a82610a14565b9050919050565b6104a3828261049e610a51565b610a59565b5050565b600073ffffffffffffffffffffffffffffffffffffffff168273ffffffffffffffffffffffffffffffffffffffff16036105195760006040517f64a0ae920000000000000000000000000000000000000000000000000000000081526004016105109190611dae565b60405180910390fd5b600061052d8383610528610a51565b610a6b565b90508373ffffffffffffffffffffffffffffffffffffffff168173ffffffffffffffffffffffffffffffffffffffff16146105a3578382826040517f64283d7b00000000000000000000000000000000000000000000000000000000815260040161059a939291906122e9565b60405180910390fd5b50505050565b60085481565b6105ca838383604051806020016040528060008152506107a6565b505050565b6105d7610c85565b80600990816105e691906124cc565b5050565b6000600854905090565b60006105ff8261098c565b9050919050565b60008073ffffffffffffffffffffffffffffffffffffffff168273ffffffffffffffffffffffffffffffffffffffff16036106795760006040517f89c62b640000000000000000000000000000000000000000000000000000000081526004016106709190611dae565b60405180910390fd5b600360008373ffffffffffffffffffffffffffffffffffffffff1673ffffffffffffffffffffffffffffffffffffffff168152602001908152602001600020549050919050565b6106c8610c85565b6106d26000610d0c565b565b6000600760009054906101000a900473ffffffffffffffffffffffffffffffffffffffff16905090565b60606001805461070d906122b8565b80601f0160208091040260200160405190810160405280929190818152602001828054610739906122b8565b80156107865780601f1061075b57610100808354040283529160200191610786565b820191906000526020600020905b81548152906001019060200180831161076957829003601f168201915b5050505050905090565b6107a261079b610a51565b8383610dd2565b5050565b6107b18484846104a7565b6107bd84848484610f41565b50505050565b60606107ce826110f8565b9050919050565b6107dd610c85565b6000600860008154809291906107f2906125cd565b919050559050610802838261120b565b61080c8183611229565b505050565b6000600560008473ffffffffffffffffffffffffffffffffffffffff1673ffffffffffffffffffffffffffffffffffffffff16815260200190815260200160002060008373ffffffffffffffffffffffffffffffffffffffff1673ffffffffffffffffffffffffffffffffffffffff16815260200190815260200160002060009054906101000a900460ff16905092915050565b6108ad610c85565b600073ffffffffffffffffffffffffffffffffffffffff168173ffffffffffffffffffffffffffffffffffffffff160361091f5760006040517f1e4fbdf70000000000000000000000000000000000000000000000000000000081526004016109169190611dae565b60405180910390fd5b61092881610d0c565b50565b6000634906490660e01b7bffffffffffffffffffffffffffffffffffffffffffffffffffffffff1916827bffffffffffffffffffffffffffffffffffffffffffffffffffffffff19161480610985575061098482611285565b5b9050919050565b60008061099883611367565b9050600073ffffffffffffffffffffffffffffffffffffffff168173ffffffffffffffffffffffffffffffffffffffff1603610a0b57826040517f7e273289000000000000000000000000000000000000000000000000000000008152600401610a029190611e97565b60405180910390fd5b80915050919050565b60006004600083815260200190815260200160002060009054906101000a900473ffffffffffffffffffffffffffffffffffffffff169050919050565b600033905090565b610a6683838360016113a4565b505050565b600080610a7784611367565b9050600073ffffffffffffffffffffffffffffffffffffffff168373ffffffffffffffffffffffffffffffffffffffff1614610ab957610ab8818486611569565b5b600073ffffffffffffffffffffffffffffffffffffffff168173ffffffffffffffffffffffffffffffffffffffff1614610b4a57610afb6000856000806113a4565b6001600360008373ffffffffffffffffffffffffffffffffffffffff1673ffffffffffffffffffffffffffffffffffffffff168152602001908152602001600020600082825403925050819055505b600073ffffffffffffffffffffffffffffffffffffffff168573ffffffffffffffffffffffffffffffffffffffff1614610bcd576001600360008773ffffffffffffffffffffffffffffffffffffffff1673ffffffffffffffffffffffffffffffffffffffff168152602001908152602001600020600082825401925050819055505b846002600086815260200190815260200160002060006101000a81548173ffffffffffffffffffffffffffffffffffffffff021916908373ffffffffffffffffffffffffffffffffffffffff160217905550838573ffffffffffffffffffffffffffffffffffffffff168273ffffffffffffffffffffffffffffffffffffffff167fddf252ad1be2c89b69c2b068fc378daa952ba7f163c4a11628f55a4df523b3ef60405160405180910390a4809150509392505050565b610c8d610a51565b73ffffffffffffffffffffffffffffffffffffffff16610cab6106d4565b73ffffffffffffffffffffffffffffffffffffffff1614610d0a57610cce610a51565b6040517f118cdaa7000000000000000000000000000000000000000000000000000000008152600401610d019190611dae565b60405180910390fd5b565b6000600760009054906101000a900473ffffffffffffffffffffffffffffffffffffffff16905081600760006101000a81548173ffffffffffffffffffffffffffffffffffffffff021916908373ffffffffffffffffffffffffffffffffffffffff1602179055508173ffffffffffffffffffffffffffffffffffffffff168173ffffffffffffffffffffffffffffffffffffffff167f8be0079c531659141344cd1fd0a4f28419497f9722a3daafe3b4186f6b6457e060405160405180910390a35050565b600073ffffffffffffffffffffffffffffffffffffffff168273ffffffffffffffffffffffffffffffffffffffff1603610e4357816040517f5b08ba18000000000000000000000000000000000000000000000000000000008152600401610e3a9190611dae565b60405180910390fd5b80600560008573ffffffffffffffffffffffffffffffffffffffff1673ffffffffffffffffffffffffffffffffffffffff16815260200190815260200160002060008473ffffffffffffffffffffffffffffffffffffffff1673ffffffffffffffffffffffffffffffffffffffff16815260200190815260200160002060006101000a81548160ff0219169083151502179055508173ffffffffffffffffffffffffffffffffffffffff168373ffffffffffffffffffffffffffffffffffffffff167f17307eab39ab6107e8899845ad3d59bd9653f200f220920489ca2b5937696c3183604051610f349190611c3d565b60405180910390a3505050565b60008373ffffffffffffffffffffffffffffffffffffffff163b11156110f2578273ffffffffffffffffffffffffffffffffffffffff1663150b7a02610f85610a51565b8685856040518563ffffffff1660e01b8152600401610fa7949392919061266a565b6020604051808303816000875af1925050508015610fe357506040513d601f19601f82011682018060405250810190610fe091906126cb565b60015b611067573d8060008114611013576040519150601f19603f3d011682016040523d82523d6000602084013e611018565b606091505b50600081510361105f57836040517f64a0ae920000000000000000000000000000000000000000000000000000000081526004016110569190611dae565b60405180910390fd5b805181602001fd5b63150b7a0260e01b7bffffffffffffffffffffffffffffffffffffffffffffffffffffffff1916817bffffffffffffffffffffffffffffffffffffffffffffffffffffffff1916146110f057836040517f64a0ae920000000000000000000000000000000000000000000000000000000081526004016110e79190611dae565b60405180910390fd5b505b50505050565b60606111038261098c565b506000600660008481526020019081526020016000208054611124906122b8565b80601f0160208091040260200160405190810160405280929190818152602001828054611150906122b8565b801561119d5780601f106111725761010080835404028352916020019161119d565b820191906000526020600020905b81548152906001019060200180831161118057829003601f168201915b5050505050905060006111ae61162d565b905060008151036111c3578192505050611206565b6000825111156111f85780826040516020016111e0929190612734565b60405160208183030381529060405292505050611206565b611201846116bf565b925050505b919050565b611225828260405180602001604052806000815250611728565b5050565b8060066000848152602001908152602001600020908161124991906124cc565b507ff8e1a15aba9398e019f0b49df1a4fde98ee17ae345cb5f6b5e2c27f5033e8ce7826040516112799190611e97565b60405180910390a15050565b60007f80ac58cd000000000000000000000000000000000000000000000000000000007bffffffffffffffffffffffffffffffffffffffffffffffffffffffff1916827bffffffffffffffffffffffffffffffffffffffffffffffffffffffff1916148061135057507f5b5e139f000000000000000000000000000000000000000000000000000000007bffffffffffffffffffffffffffffffffffffffffffffffffffffffff1916827bffffffffffffffffffffffffffffffffffffffffffffffffffffffff1916145b80611360575061135f82611744565b5b9050919050565b60006002600083815260200190815260200160002060009054906101000a900473ffffffffffffffffffffffffffffffffffffffff169050919050565b80806113dd5750600073ffffffffffffffffffffffffffffffffffffffff168273ffffffffffffffffffffffffffffffffffffffff1614155b156115115760006113ed8461098c565b9050600073ffffffffffffffffffffffffffffffffffffffff168373ffffffffffffffffffffffffffffffffffffffff161415801561145857508273ffffffffffffffffffffffffffffffffffffffff168173ffffffffffffffffffffffffffffffffffffffff1614155b801561146b57506114698184610811565b155b156114ad57826040517fa9fbf51f0000000000000000000000000000000000000000000000000000000081526004016114a49190611dae565b60405180910390fd5b811561150f57838573ffffffffffffffffffffffffffffffffffffffff168273ffffffffffffffffffffffffffffffffffffffff167f8c5be1e5ebec7d5bd14f71427d1e84f3dd0314c0f7b2291e5b200ac8c7c3b92560405160405180910390a45b505b836004600085815260200190815260200160002060006101000a81548173ffffffffffffffffffffffffffffffffffffffff021916908373ffffffffffffffffffffffffffffffffffffffff16021790555050505050565b6115748383836117ae565b61162857600073ffffffffffffffffffffffffffffffffffffffff168373ffffffffffffffffffffffffffffffffffffffff16036115e957806040517f7e2732890000000000000000000000000000000000000000000000000000000081526004016115e09190611e97565b60405180910390fd5b81816040517f177e802f00000000000000000000000000000000000000000000000000000000815260040161161f929190612758565b60405180910390fd5b505050565b60606009805461163c906122b8565b80601f0160208091040260200160405190810160405280929190818152602001828054611668906122b8565b80156116b55780601f1061168a576101008083540402835291602001916116b5565b820191906000526020600020905b81548152906001019060200180831161169857829003601f168201915b5050505050905090565b60606116ca8261098c565b5060006116d561162d565b905060008151116116f55760405180602001604052806000815250611720565b806116ff8461186f565b604051602001611710929190612734565b6040516020818303038152906040525b915050919050565b611732838361193d565b61173f6000848484610f41565b505050565b60007f01ffc9a7000000000000000000000000000000000000000000000000000000007bffffffffffffffffffffffffffffffffffffffffffffffffffffffff1916827bffffffffffffffffffffffffffffffffffffffffffffffffffffffff1916149050919050565b60008073ffffffffffffffffffffffffffffffffffffffff168373ffffffffffffffffffffffffffffffffffffffff161415801561186657508273ffffffffffffffffffffffffffffffffffffffff168473ffffffffffffffffffffffffffffffffffffffff16148061182757506118268484610811565b5b8061186557508273ffffffffffffffffffffffffffffffffffffffff1661184d83610a14565b73ffffffffffffffffffffffffffffffffffffffff16145b5b90509392505050565b60606000600161187e84611a36565b01905060008167ffffffffffffffff81111561189d5761189c611ebc565b5b6040519080825280601f01601f1916602001820160405280156118cf5781602001600182028036833780820191505090505b509050600082602001820190505b600115611932578080600190039150507f3031323334353637383961626364656600000000000000000000000000000000600a86061a8153600a858161192657611925612781565b5b049450600085036118dd575b819350505050919050565b600073ffffffffffffffffffffffffffffffffffffffff168273ffffffffffffffffffffffffffffffffffffffff16036119af5760006040517f64a0ae920000000000000000000000000000000000000000000000000000000081526004016119a69190611dae565b60405180910390fd5b60006119bd83836000610a6b565b9050600073ffffffffffffffffffffffffffffffffffffffff168173ffffffffffffffffffffffffffffffffffffffff1614611a315760006040517f73c6ac6e000000000000000000000000000000000000000000000000000000008152600401611a289190611dae565b60405180910390fd5b505050565b600080600090507a184f03e93ff9f4daa797ed6e38ed64bf6a1f0100000000000000008310611a94577a184f03e93ff9f4daa797ed6e38ed64bf6a1f0100000000000000008381611a8a57611a89612781565b5b0492506040810190505b6d04ee2d6d415b85acef81000000008310611ad1576d04ee2d6d415b85acef81000000008381611ac757611ac6612781565b5b0492506020810190505b662386f26fc100008310611b0057662386f26fc100008381611af657611af5612781565b5b0492506010810190505b6305f5e1008310611b29576305f5e1008381611b1f57611b1e612781565b5b0492506008810190505b6127108310611b4e576127108381611b4457611b43612781565b5b0492506004810190505b60648310611b715760648381611b6757611b66612781565b5b0492506002810190505b600a8310611b80576001810190505b80915050919050565b6000604051905090565b600080fd5b600080fd5b60007fffffffff0000000000000000000000000000000000000000000000000000000082169050919050565b611bd281611b9d565b8114611bdd57600080fd5b50565b600081359050611bef81611bc9565b92915050565b600060208284031215611c0b57611c0a611b93565b5b6000611c1984828501611be0565b91505092915050565b60008115159050919050565b611c3781611c22565b82525050565b6000602082019050611c526000830184611c2e565b92915050565b600081519050919050565b600082825260208201905092915050565b60005b83811015611c92578082015181840152602081019050611c77565b60008484015250505050565b6000601f19601f8301169050919050565b6000611cba82611c58565b611cc48185611c63565b9350611cd4818560208601611c74565b611cdd81611c9e565b840191505092915050565b60006020820190508181036000830152611d028184611caf565b905092915050565b6000819050919050565b611d1d81611d0a565b8114611d2857600080fd5b50565b600081359050611d3a81611d14565b92915050565b600060208284031215611d5657611d55611b93565b5b6000611d6484828501611d2b565b91505092915050565b600073ffffffffffffffffffffffffffffffffffffffff82169050919050565b6000611d9882611d6d565b9050919050565b611da881611d8d565b82525050565b6000602082019050611dc36000830184611d9f565b92915050565b611dd281611d8d565b8114611ddd57600080fd5b50565b600081359050611def81611dc9565b92915050565b60008060408385031215611e0c57611e0b611b93565b5b6000611e1a85828601611de0565b9250506020611e2b85828601611d2b565b9150509250929050565b600080600060608486031215611e4e57611e4d611b93565b5b6000611e5c86828701611de0565b9350506020611e6d86828701611de0565b9250506040611e7e86828701611d2b565b9150509250925092565b611e9181611d0a565b82525050565b6000602082019050611eac6000830184611e88565b92915050565b600080fd5b600080fd5b7f4e487b7100000000000000000000000000000000000000000000000000000000600052604160045260246000fd5b611ef482611c9e565b810181811067ffffffffffffffff82111715611f1357611f12611ebc565b5b80604052505050565b6000611f26611b89565b9050611f328282611eeb565b919050565b600067ffffffffffffffff821115611f5257611f51611ebc565b5b611f5b82611c9e565b9050602081019050919050565b82818337600083830152505050565b6000611f8a611f8584611f37565b611f1c565b905082815260208101848484011115611fa657611fa5611eb7565b5b611fb1848285611f68565b509392505050565b600082601f830112611fce57611fcd611eb2565b5b8135611fde848260208601611f77565b91505092915050565b600060208284031215611ffd57611ffc611b93565b5b600082013567ffffffffffffffff81111561201b5761201a611b98565b5b61202784828501611fb9565b91505092915050565b60006020828403121561204657612045611b93565b5b600061205484828501611de0565b91505092915050565b61206681611c22565b811461207157600080fd5b50565b6000813590506120838161205d565b92915050565b600080604083850312156120a05761209f611b93565b5b60006120ae85828601611de0565b92505060206120bf85828601612074565b9150509250929050565b600067ffffffffffffffff8211156120e4576120e3611ebc565b5b6120ed82611c9e565b9050602081019050919050565b600061210d612108846120c9565b611f1c565b90508281526020810184848401111561212957612128611eb7565b5b612134848285611f68565b509392505050565b600082601f83011261215157612150611eb2565b5b81356121618482602086016120fa565b91505092915050565b6000806000806080858703121561218457612183611b93565b5b600061219287828801611de0565b94505060206121a387828801611de0565b93505060406121b487828801611d2b565b925050606085013567ffffffffffffffff8111156121d5576121d4611b98565b5b6121e18782880161213c565b91505092959194509250565b6000806040838503121561220457612203611b93565b5b600061221285828601611de0565b925050602083013567ffffffffffffffff81111561223357612232611b98565b5b61223f85828601611fb9565b9150509250929050565b600080604083850312156122605761225f611b93565b5b600061226e85828601611de0565b925050602061227f85828601611de0565b9150509250929050565b7f4e487b7100000000000000000000000000000000000000000000000000000000600052602260045260246000fd5b600060028204905060018216806122d057607f821691505b6020821081036122e3576122e2612289565b5b50919050565b60006060820190506122fe6000830186611d9f565b61230b6020830185611e88565b6123186040830184611d9f565b949350505050565b60008190508160005260206000209050919050565b60006020601f8301049050919050565b600082821b905092915050565b6000600883026123827fffffffffffffffffffffffffffffffffffffffffffffffffffffffffffffffff82612345565b61238c8683612345565b95508019841693508086168417925050509392505050565b6000819050919050565b60006123c96123c46123bf84611d0a565b6123a4565b611d0a565b9050919050565b6000819050919050565b6123e3836123ae565b6123f76123ef826123d0565b848454612352565b825550505050565b600090565b61240c6123ff565b6124178184846123da565b505050565b5b8181101561243b57612430600082612404565b60018101905061241d565b5050565b601f8211156124805761245181612320565b61245a84612335565b81016020851015612469578190505b61247d61247585612335565b83018261241c565b50505b505050565b600082821c905092915050565b60006124a360001984600802612485565b1980831691505092915050565b60006124bc8383612492565b9150826002028217905092915050565b6124d582611c58565b67ffffffffffffffff8111156124ee576124ed611ebc565b5b6124f882546122b8565b61250382828561243f565b600060209050601f8311600181146125365760008415612524578287015190505b61252e85826124b0565b865550612596565b601f19841661254486612320565b60005b8281101561256c57848901518255600182019150602085019450602081019050612547565b868310156125895784890151612585601f891682612492565b8355505b6001600288020188555050505b505050505050565b7f4e487b7100000000000000000000000000000000000000000000000000000000600052601160045260246000fd5b60006125d882611d0a565b91507fffffffffffffffffffffffffffffffffffffffffffffffffffffffffffffffff820361260a5761260961259e565b5b600182019050919050565b600081519050919050565b600082825260208201905092915050565b600061263c82612615565b6126468185612620565b9350612656818560208601611c74565b61265f81611c9e565b840191505092915050565b600060808201905061267f6000830187611d9f565b61268c6020830186611d9f565b6126996040830185611e88565b81810360608301526126ab8184612631565b905095945050505050565b6000815190506126c581611bc9565b92915050565b6000602082840312156126e1576126e0611b93565b5b60006126ef848285016126b6565b91505092915050565b600081905092915050565b600061270e82611c58565b61271881856126f8565b9350612728818560208601611c74565b80840191505092915050565b60006127408285612703565b915061274c8284612703565b91508190509392505050565b600060408201905061276d6000830185611d9f565b61277a6020830184611e88565b9392505050565b7f4e487b7100000000000000000000000000000000000000000000000000000000600052601260045260246000fdfea2646970667358221220a7f0109ea612592dd3d3a50c2a3d9871e72f7581f35ef83ecbbcf8d85410e66a64736f6c63430008140033",
  "linkReferences": {},
  "deployedLinkReferences": {}
}